S014000050726F6A6563745F546573742E737265633A
S113000029C000002FC000002DC000002BC000003C
S113001029C0000027C0000025C0000023C0000044
S113002021C000001FC000001DC000001BC0000054
S113003019C0000017C0000015C0000013C0000064
S113004011C000000FC000000DC000000BC0000074
S113005009C0000011241FBECFE5D8E0DEBFCDBF2C
S11300605AD0E2C1CDCFCF93C82F61E061D060E018
S11300708C2F4DD1CF91089561E089E059D061E092
S11300808AE056D061E089E042D160E08AE03FD165
S11300908AB3806F8ABB8BB38F708BBB08956A3031
S11300A038F49BB39F706295607F692B6BBB03C070
S11300B09BB39F709BBB882319F0813041F00DC026
S11300C061E089E024D160E08AE021D106C060E0EB
S11300D089E01DD161E08AE01AD18FE39CE90197A0
S11300E0F1F700C000000895CF93CDEC8C9FC12D93
S11300F01124C695C695C6952C2F220F922F990FC1
S1130100990F920F682F691B80E0C9DF6C2F81E083
S1130110C6DFCF910895B0DF83E0A5DFD3E606C044
S11301208D2FE2DFC150E1F7D150C1F3C2E3F8CF24
S1130130982F9770869586958695813009F440C0EE
S113014038F0823009F474C0833009F4A9C00895EA
S1130150611112C04AB321E030E0B90102C0660F58
S1130160771F9A95E2F7CB018095942F98239ABB39
S11301709BB389238BBB0895623091F44AB321E089
S113018030E0B90102C0660F771F9A95E2F7CB0100
S1130190962F909594239ABB9BB3892B8BBB089580
S11301A0613009F0B3C04AB321E030E0B90102C0C4
S11301B0660F771F9A95E2F7CB01842B8ABB0895CB
S11301C0611112C047B321E030E0B90102C0660FEB
S11301D0771F9A95E2F7CB018095942F982397BBCC
S11301E098B3892388BB0895623091F447B321E022
S11301F030E0B90102C0660F771F9A95E2F7CB0190
S1130200962F9095942397BB98B3892B88BB089518
S1130210613009F07BC047B321E030E0B90102C08E
S1130220660F771F9A95E2F7CB01842B87BB08955D
S1130230611112C044B321E030E0B90102C0660F7D
S1130240771F9A95E2F7CB018095942F982394BB5E
S113025095B3892385BB0895623091F444B321E0BA
S113026030E0B90102C0660F771F9A95E2F7CB011F
S1130270962F9095942394BB95B3892B85BB0895B1
S1130280613009F043C044B321E030E0B90102C059
S1130290660F771F9A95E2F7CB01842B84BB0895F0
S11302A0611112C041B321E030E0B90102C0660F10
S11302B0771F9A95E2F7CB018095942F982391BBF1
S11302C092B3892382BB0895623091F441B321E053
S11302D030E0B90102C0660F771F9A95E2F7CB01AF
S11302E0962F9095942391BB92B3892B82BB08954A
S11302F0613061F441B321E030E0B90102C0660F1E
S1130300771F9A95E2F7CB01842B81BB0895982F30
S11303109770869586958695813041F138F08230C4
S113032009F444C0833009F460C0089561110EC01B
S11303304BB321E030E0B90102C0660F771F9A95F4
S1130340E2F7CB01809584238BBB0895613009F0DB
S11303506AC04BB321E030E0B90102C0660F771FD9
S11303609A95E2F7CB01842B8BBB089561110EC0E3
S113037048B321E030E0B90102C0660F771F9A95B7
S1130380E2F7CB018095842388BB0895613009F09E
S11303904AC048B321E030E0B90102C0660F771FBC
S11303A09A95E2F7CB01842B88BB089561110EC0A6
S11303B045B321E030E0B90102C0660F771F9A957A
S11303C0E2F7CB018095842385BB0895613059F50C
S11303D045B321E030E0B90102C0660F771F9A955A
S11303E0E2F7CB01842B85BB089561110EC042B3A3
S11303F021E030E0B90102C0660F771F9A95E2F759
S1130400CB018095842382BB0895613061F442B3AB
S113041021E030E0B90102C0660F771F9A95E2F738
S10F0420CB01842B82BB0895F894FFCF1D
S9030000FC
