S014000050726F6A6563745F546573742E737265633A
S113000029C0000042C0000040C000003EC0000003
S11300103CC000003AC0000038C0000036C00000F8
S113002034C0000032C0000030C000002EC0000008
S11300302CC000002AC0000028C0000026C0000018
S113004024C0000022C0000020C000001EC0000028
S11300501CC0000011241FBECFE5D8E0DEBFCDBF19
S113006010E0A0E6B0E0E6EDF7E002C005900D92E6
S1130070A837B107D9F720E0A8E7B0E001C01D9286
S1130080AA37B207E1F702D0A4C3BACF14D0E8D09C
S113009047D0C82F8E34E1F335D1CA3211F481E050
S11300A0B9D02FEF81EE94E0215080409040E1F7E9
S11300B000C00000EDCFEF92FF920F931F93CF93F8
S11300C0DF9304E710E00F2EF8E7EF2EF0E0FF2EA9
S11300D0F02DE80161E0899142D1CE15DF05D1F719
S11300E0C0E7D0E00F2EF4E7EF2EF0E0FF2EF02D66
S11300F060E0899134D160E0F80181918F011ED2D2
S1130100CE15DF05A9F781EE94E00197F1F700C061
S11301100000DF91CF911F910F91FF90EF90089510
S11301206F927F928F929F92AF92BF92CF92DF9203
S1130130EF92FF920F931F93CF93DF9304E710E0A6
S1130140E12CF12C3701580161E0F8018081F6D1EE
S11301500F2EF0E78F2EF0E09F2EF02DC0E0D0E0C0
S11301606E01F401808177D28823E1F085EA9EE074
S11301700197F1F700C00000F40180816CD288235C
S113018089F0C059DF4F888166D28111FCCFF30119
S1130190EE0FFF1FEE0FFF1FE05AFF4FEC0DFD1D8A
S11301A0808116C02196FFEF8F1A9F0AC430D105B3
S11301B0B9F60F5F1F4F60E0F5018081BFD1FFEFFB
S11301C0EF1AFF0A84E0E816F10409F0BBCF8EE4CD
S11301D0DF91CF911F910F91FF90EF90DF90CF901F
S11301E0BF90AF909F908F907F906F90089561E043
S11301F08BE0A4D189EF90E00197F1F700C00000F3
S113020060E08BE09BD189EF90E00197F1F700C0AB
S113021000000895CF93C82F60E089E08FD100C01B
S113022080917800813039F44C2F42954F7061E011
S113023080E0B8D2DCDF4C2F4F7061E080E0B2D2B6
S1130240D6DF80E18A95F1F700C0C150C23030F4A6
S113025083EF91E00197F1F700C00000CF9108957A
S113026061E08BE07CD061E089E079D061E08AE0F4
S113027076D083ED90E30197F1F700C0000060E0D1
S11302808AE05CD14FE061E080E03CD283E0C2DFF1
S113029081EE94E00197F1F700C0000083E0BADF3B
S11302A092E39A95F1F783E0B5DF82E0B3DF89EF5B
S11302B090E00197F1F700C0000081E0809378009E
S11302C088E2A8DF8FE0A6DF81E0A4DF86E0A2CF8A
S11302D00895823040F4603148F490E4899F600DC1
S11302E01124862F0AC080E4860F07C0613120F0F4
S11302F0862F8F70805C01C080E0809379008068D5
S113030089CF0895CF93C82F80917900803119F453
S113031060E081E0DEDF80917900803520F010928A
S1130320790080E877DF61E089E008D100C04C2FD4
S113033042954F7061E080E035D259DF4C2F4F7009
S113034061E080E02FD253DF80E18A95F1F700C0AD
S1130350809179008F5F80937900CF910895982FD1
S11303609770869586958695813009F440C038F05B
S1130370823009F474C0833009F4A9C0089561116E
S113038012C04AB321E030E0B90102C0660F771F02
S11303909A95E2F7CB018095942F98239ABB9BB34F
S11303A089238BBB0895623091F44AB321E030E095
S11303B0B90102C0660F771F9A95E2F7CB01962F19
S11303C0909594239ABB9BB3892B8BBB0895613082
S11303D009F0B3C04AB321E030E0B90102C0660FAE
S11303E0771F9A95E2F7CB01842B8ABB089561119C
S11303F012C047B321E030E0B90102C0660F771F95
S11304009A95E2F7CB018095942F982397BB98B3E4
S1130410892388BB0895623091F447B321E030E02A
S1130420B90102C0660F771F9A95E2F7CB01962FA8
S11304309095942397BB98B3892B88BB089561301A
S113044009F07BC047B321E030E0B90102C0660F78
S1130450771F9A95E2F7CB01842B87BB089561112E
S113046012C044B321E030E0B90102C0660F771F27
S11304709A95E2F7CB018095942F982394BB95B37A
S1130480892385BB0895623091F444B321E030E0C0
S1130490B90102C0660F771F9A95E2F7CB01962F38
S11304A09095942394BB95B3892B85BB08956130B3
S11304B009F043C044B321E030E0B90102C0660F43
S11304C0771F9A95E2F7CB01842B84BB08956111C1
S11304D012C041B321E030E0B90102C0660F771FBA
S11304E09A95E2F7CB018095942F982391BB92B310
S11304F0892382BB0895623091F441B321E030E056
S1130500B90102C0660F771F9A95E2F7CB01962FC7
S11305109095942391BB92B3892B82BB089561304B
S113052061F441B321E030E0B90102C0660F771FE6
S11305309A95E2F7CB01842B81BB0895982F97708D
S1130540869586958695813041F138F0823009F49C
S113055044C0833009F460C0089561110EC04BB3E8
S113056021E030E0B90102C0660F771F9A95E2F7E7
S1130570CB01809584238BBB0895613009F06AC058
S11305804BB321E030E0B90102C0660F771F9A95A2
S1130590E2F7CB01842B8BBB089561110EC048B3E5
S11305A021E030E0B90102C0660F771F9A95E2F7A7
S11305B0CB018095842388BB0895613009F04AC03B
S11305C048B321E030E0B90102C0660F771F9A9565
S11305D0E2F7CB01842B88BB089561110EC045B3AB
S11305E021E030E0B90102C0660F771F9A95E2F767
S11305F0CB018095842385BB0895613059F545B3BB
S113060021E030E0B90102C0660F771F9A95E2F746
S1130610CB01842B85BB089561110EC042B321E048
S113062030E0B90102C0660F771F9A95E2F7CB015B
S11306308095842382BB0895613061F442B321E044
S113064030E0B90102C0660F771F9A95E2F7CB013B
S1130650842B82BB0895282F2770869586958695CE
S1130660813081F028F08230B9F08330F9F027C06E
S113067089B390E002C0959587952A95E2F7982F63
S113068091701DC086B390E002C0959587952A9518
S1130690E2F7982F917013C083B390E002C0959550
S11306A087952A95E2F7982F917009C080B390E05E
S11306B002C0959587952A95E2F7982F9170892F16
S11306C00895813041F028F0823039F0833039F0D8
S11306D008956BBB089568BB089565BB089562BB1C
S11306E00895813041F028F0823039F0833039F0B8
S11306F007C099B305C096B303C093B301C090B3C8
S1130700892F08958130C1F028F0823039F1833087
S1130710B9F10895613049F48AB38F7090E1499F2B
S1130720A0011124482B4ABB089561113AC08AB331
S1130730807F482B4ABB0895613049F487B38F709A
S113074090E1499FA0011124482B47BB08956111F2
S113075028C087B3807F482B47BB0895613049F494
S113076084B38F7090E1499FA0011124482B44BBAE
S11307700895611116C084B3807F482B44BB08954B
S1130780613049F481B38F7090E1499FA001112435
S1130790482B41BB0895611104C081B3807F482B6D
S11307A041BB0895CF93DF93D82FC42F613041F418
S11307B098DF8F7090E1C99FB0011124682B04C0A9
S11307C090DF807F682F6C2B8D2F7BDFDF91CF91A3
S10907D00895F894FFCF28
S11307D63132334134353642373839432A302344AB
S10B07E6161514130F0E0D0C7F
S9030000FC
