S014000050726F6A6563745F546573742E737265633A
S113000029C000002FC000002DC000002BC000003C
S113001029C0000027C0000025C0000023C0000044
S113002021C000001FC000001DC000001BC0000054
S113003019C0000017C0000015C0000013C0000064
S113004011C000000FC000000DC000000BC0000074
S113005009C0000011241FBECFE5D8E0DEBFCDBF2C
S113006007D06AC1CDCF61E017C00895A2C008953A
S113007082E1F9DF60E08DE10FD061E08DE199D09C
S11300808DE124D1811104C061E082E1EFDFF8CF7A
S113009060E082E1EBDFF4CF982F97708695869528
S11300A08695813041F138F0823009F444C08330C0
S11300B009F460C0089561110EC04AB321E030E034
S11300C0B90102C0660F771F9A95E2F7CB018095BC
S11300D084238ABB0895613009F06AC04AB321E0E1
S11300E030E0B90102C0660F771F9A95E2F7CB01A1
S11300F0842B8ABB089561110EC047B321E030E020
S1130100B90102C0660F771F9A95E2F7CB0180957B
S1130110842387BB0895613009F04AC047B321E0C6
S113012030E0B90102C0660F771F9A95E2F7CB0160
S1130130842B87BB089561110EC044B321E030E0E5
S1130140B90102C0660F771F9A95E2F7CB0180953B
S1130150842384BB0895613059F544B321E030E031
S1130160B90102C0660F771F9A95E2F7CB01842B81
S113017084BB089561110EC041B321E030E0B901A0
S113018002C0660F771F9A95E2F7CB01809584230E
S113019081BB0895613061F441B321E030E0B901DD
S11301A002C0660F771F9A95E2F7CB01842B81BBBF
S11301B00895982F9770869586958695813041F19C
S11301C038F0823009F444C0833009F460C00895E3
S11301D061110EC04BB321E030E0B90102C0660FDB
S11301E0771F9A95E2F7CB01809584238BBB089502
S11301F0613009F06AC04BB321E030E0B90102C0BC
S1130200660F771F9A95E2F7CB01842B8BBB089579
S113021061110EC048B321E030E0B90102C0660F9D
S1130220771F9A95E2F7CB018095842388BB0895C4
S1130230613009F04AC048B321E030E0B90102C09E
S1130240660F771F9A95E2F7CB01842B88BB08953C
S113025061110EC045B321E030E0B90102C0660F60
S1130260771F9A95E2F7CB018095842385BB089587
S1130270613059F545B321E030E0B90102C0660FA1
S1130280771F9A95E2F7CB01842B85BB0895611102
S11302900EC042B321E030E0B90102C0660F771FFF
S11302A09A95E2F7CB018095842382BB089561304F
S11302B061F442B321E030E0B90102C0660F771F58
S11302C09A95E2F7CB01842B82BB0895282F2770DF
S11302D0869586958695813081F028F08230B9F034
S11302E08330F9F027C089B390E002C095958795D3
S11302F02A95E2F7982F91701DC086B390E002C052
S1130300959587952A95E2F7982F917013C083B33A
S113031090E002C0959587952A95E2F7982F917001
S113032009C080B390E002C0959587952A95E2F7BD
S10F0330982F9170892F0895F894FFCF46
S9030000FC
