S014000050726F6A6563745F546573742E737265633A
S113000029C0000042C0000040C000003EC0000003
S11300103CC000003AC0000038C0000036C00000F8
S113002034C0000032C0000030C000002EC0000008
S11300302CC000002AC0000028C0000026C0000018
S113004024C0000022C0000020C000001EC0000028
S11300501CC0000011241FBECFE5D8E0DEBFCDBF19
S113006010E0A0E6B0E0E0E5FAE002C005900D92F1
S1130070A636B107D9F720E0A6E6B0E001C01D928C
S1130080A836B207E1F702D0E1C4BACF6AD080D172
S113009063E080E09FD080E690E0E5D08AE090E0E5
S11300A006D10AE010E080E05BD1EC0108171907E3
S11300B0A9F081E030D063E080E08CD080E690E06D
S11300C0D2D0CE01F4D02FEF81EE94E021508040C5
S11300D09040E1F700C000008E01E5CF2FEF80E7EC
S11300E092E0215080409040E1F700C00000DBCF57
S11300F061E08BE056D289EF90E00197F1F700C000
S1130100000060E08BE04DD289EF90E00197F1F7B9
S113011000C000000895CF93C82F60E089E041D269
S113012000C080916600813039F44C2F42954F70A5
S113013061E080E034D3DCDF4C2F4F7061E080E07D
S11301402ED3D6DF80E18A95F1F700C0C150C230CA
S113015030F483EF91E00197F1F700C00000CF91F4
S1130160089561E08BE02ED161E089E02BD161E05C
S11301708AE028D183ED90E30197F1F700C00000F5
S113018060E08AE00ED24FE061E080E0B8D283E024
S1130190C2DF81EE94E00197F1F700C0000083E034
S11301A0BADF92E39A95F1F783E0B5DF82E0B3DF3B
S11301B089EF90E00197F1F700C0000081E080939F
S11301C0660088E2A8DF8FE0A6DF81E0A4DF86E096
S11301D0A2CF0895823040F4603148F490E4899FBE
S11301E0600D1124862F0AC080E4860F07C0613198
S11301F020F0862F8F70805C01C080E080936700C0
S1130200806889CF0895CF93C82F8091670080318B
S113021019F460E081E0DEDF80916700803520F032
S11302201092670080E877DF61E089E0BAD100C00E
S11302304C2F42954F7061E080E0B1D259DF4C2FD2
S11302404F7061E080E0ABD253DF80E18A95F1F733
S113025000C0809167008F5F80936700CF910895FD
S1130260805DD1CF0895CF93DF93EC0188818823FB
S113027029F02196C8DF89918111FCCFDF91CF91BC
S113028008959C01892B81F040E0ADECBCECCFD308
S11302909C013695279536952795369527954F5F7A
S11302A02115310591F701C040E0842F0895EF92A4
S11302B0FF920F931F93CF93DF937C01E2DF482FCC
S11302C050E04150510914161506ACF490E0C1E019
S11302D0D0E09E01220F331FCC0FDD1FCC0FDD1F9A
S11302E0CC0FDD1FC20FD31F9F5F292F30E02417CF
S11302F035077CF302C0C1E0D0E0E114F10449F118
S1130300C701BE0180D3082F192F862FA9DFE02E45
S1130310F12E9E01ADECBCEC8AD3EC01D695C795C9
S1130320D695C795D695C795E114F10449F7C2301F
S1130330D10578F080E094DF9E01ADECBCEC77D37E
S1130340EC01D695C795D695C795D695C7952097B0
S113035089F7DF91CF911F910F91FF90EF9008954E
S113036027D064B175B180E090E05CD220E030E049
S113037040EA50E4E5D220E030E040E85AE3E0D23D
S113038020E030E048EC52E4DBD220D2CB010895E7
S1130390379A87B18F7387B987B187B986B1887F58
S11303A086B986B1876086B93598339834980895AC
S11303B097B1907E97B997B1892B87B9369A3699B8
S11303C0FECF0895982F97708695869586958130EF
S11303D009F440C038F0823009F474C0833009F461
S11303E0A9C00895611112C04AB321E030E0B901F7
S11303F002C0660F771F9A95E2F7CB018095942F80
S113040098239ABB9BB389238BBB0895623091F4E4
S11304104AB321E030E0B90102C0660F771F9A9514
S1130420E2F7CB01962F909594239ABB9BB3892B2B
S11304308BBB0895613009F0B3C04AB321E030E0CA
S1130440B90102C0660F771F9A95E2F7CB01842B9E
S11304508ABB0895611112C047B321E030E0B901AD
S113046002C0660F771F9A95E2F7CB018095942F0F
S1130470982397BB98B3892388BB0895623091F47D
S113048047B321E030E0B90102C0660F771F9A95A7
S1130490E2F7CB01962F9095942397BB98B3892BC1
S11304A088BB0895613009F07BC047B321E030E098
S11304B0B90102C0660F771F9A95E2F7CB01842B2E
S11304C087BB0895611112C044B321E030E0B90143
S11304D002C0660F771F9A95E2F7CB018095942F9F
S11304E0982394BB95B3892385BB0895623091F416
S11304F044B321E030E0B90102C0660F771F9A953A
S1130500E2F7CB01962F9095942394BB95B3892B56
S113051085BB0895613009F043C044B321E030E065
S1130520B90102C0660F771F9A95E2F7CB01842BBD
S113053084BB0895611112C041B321E030E0B901D8
S113054002C0660F771F9A95E2F7CB018095942F2E
S1130550982391BB92B3892382BB0895623091F4AE
S113056041B321E030E0B90102C0660F771F9A95CC
S1130570E2F7CB01962F9095942391BB92B3892BEC
S113058082BB0895613061F441B321E030E0B901E8
S113059002C0660F771F9A95E2F7CB01842B81BBCB
S11305A00895982F9770869586958695813041F1A8
S11305B038F0823009F444C0833009F460C00895EF
S11305C061110EC04BB321E030E0B90102C0660FE7
S11305D0771F9A95E2F7CB01809584238BBB08950E
S11305E0613009F06AC04BB321E030E0B90102C0C8
S11305F0660F771F9A95E2F7CB01842B8BBB089586
S113060061110EC048B321E030E0B90102C0660FA9
S1130610771F9A95E2F7CB018095842388BB0895D0
S1130620613009F04AC048B321E030E0B90102C0AA
S1130630660F771F9A95E2F7CB01842B88BB089548
S113064061110EC045B321E030E0B90102C0660F6C
S1130650771F9A95E2F7CB018095842385BB089593
S1130660613059F545B321E030E0B90102C0660FAD
S1130670771F9A95E2F7CB01842B85BB089561110E
S11306800EC042B321E030E0B90102C0660F771F0B
S11306909A95E2F7CB018095842382BB089561305B
S11306A061F442B321E030E0B90102C0660F771F64
S11306B09A95E2F7CB01842B82BB0895813041F0F7
S11306C028F0823039F0833039F008956BBB0895F7
S11306D068BB089565BB089562BB0895813041F0FD
S11306E028F0823039F0833039F007C099B305C05F
S11306F096B303C093B301C090B3892F089581309A
S1130700C1F028F0823039F18330B9F108956130B5
S113071049F48AB38F7090E1499FA0011124482BBA
S11307204ABB089561113AC08AB3807F482B4ABB03
S11307300895613049F487B38F7090E1499FA00117
S11307401124482B47BB0895611128C087B3807FCB
S1130750482B47BB0895613049F484B38F7090E10E
S1130760499FA0011124482B44BB0895611116C070
S113077084B3807F482B44BB0895613049F481B32E
S11307808F7090E1499FA0011124482B41BB08952B
S1130790611104C081B3807F482B41BB0895CF937E
S11307A0DF93D82FC42F613041F498DF8F7090E12C
S11307B0C99FB0011124682B04C090DF807F682F8B
S11307C06C2B8D2F7BDFDF91CF91089598D088F02B
S11307D09F5790F0B92F9927B751A0F0D1F0660F29
S11307E0771F881F991F1AF0BA95C9F712C0B13044
S11307F081F09FD0B1E008959CC0672F782F88279F
S1130800B85F39F0B93FCCF3869577956795B39582
S1130810D9F73EF490958095709561957F4F8F4FF1
S11308209F4F0895E89409C097FB3EF490958095F6
S1130830709561957F4F8F4F9F4F9923A9F0F92FA2
S113084096E9BB279395F695879577956795B79520
S1130850F111F8CFFAF4BB0F11F460FF1BC06F5F06
S11308607F4F8F4F9F4F16C0882311F096E911C018
S1130870772321F09EE8872F762F05C0662371F039
S113088096E8862F70E060E02AF09A95660F771F4D
S1130890881FDAF7880F9695879597F9089597F941
S11308A09F6780E870E060E008959FEF80EC089512
S11308B000240A941616170618060906089500243B
S11308C00A9412161306140605060895092E0394B5
S11308D0000C11F4882352F0BB0F40F4BF2B11F429
S11308E060FF04C06F5F7F4F8F4F9F4F089557FD88
S11308F09058440F551F59F05F3F71F04795880F8A
S113090097FB991F61F09F3F79F087950895121620
S113091013061406551FF2CF4695F1DF08C01616CC
S113092017061806991FF1CF86957105610508947D
S11309300895E894BB2766277727CB0197F9089594
S11309400BD0C4CFB5DF28F0BADF18F0952309F037
S1130950A6CFABCF1124EECFCADFA0F3959FD1F37E
S1130960950F50E0551F629FF001729FBB27F00D59
S1130970B11D639FAA27F00DB11DAA1F649F6627AE
S1130980B00DA11D661F829F2227B00DA11D621FFD
S1130990739FB00DA11D621F839FA00D611D221FB7
S11309A0749F3327A00D611D231F849F600D211D9B
S11309B0822F762F6A2F11249F5750408AF0E1F03E
S11309C088234AF0EE0FFF1FBB1F661F771F881F87
S11309D091505040A9F79E3F510570F060CFAACFC7
S11309E05F3FECF3983EDCF3869577956795B79572
S11309F0F795E7959F5FC1F7FE2B880F911D96959C
S1130A00879597F90895AA1BBB1B51E107C0AA1F3C
S1130A10BB1FA617B70710F0A61BB70B881F991F9B
S1130A205A95A9F780959095BC01CD010895A29F90
S1130A30B001B39FC001A39F700D811D1124911DAE
S1130A40B29F700D811D1124911D0895F894FFCF5C
S1090A5054656D703A00CC
S9030000FC
