S014000050726F6A6563745F546573742E737265633A
S113000029C0000042C0000040C000003EC0000003
S11300103CC000003AC0000038C0000036C00000F8
S113002034C0000032C0000030C000002EC0000008
S11300302CC000002AC0000028C0000026C0000018
S113004024C0000022C0000020C000001EC0000028
S11300501CC0000011241FBECFE5D8E0DEBFCDBF19
S113006010E0A0E6B0E0ECE3FBE002C005900D92E6
S1130070A838B107D9F720E0A8E8B0E001C01D9284
S1130080AA38B207E1F702D057C5BACF81D15AD006
S11300908FE39CE90197F1F700C0000080E051D1A3
S11300A06B017C0181E028D063E080E084D080E6AD
S11300B090E0CAD0C701B601FFD3CB01E9D09FEFCE
S11300C024E38CE0915020408040E1F700C0000020
S11300D0E5CF61E08BE076D289EF90E00197F1F70C
S11300E000C0000060E08BE06DD289EF90E00197E2
S11300F0F1F700C000000895CF93C82F60E089E0B5
S113010061D200C080918800813039F44C2F42952F
S11301104F7061E080E054D3DCDF4C2F4F7061E01E
S113012080E04ED3D6DF80E18A95F1F700C0C1505C
S1130130C23030F483EF91E00197F1F700C0000082
S1130140CF91089561E08BE04ED161E089E04BD11D
S113015061E08AE048D183ED90E30197F1F700C0B4
S1130160000060E08AE02ED24FE061E080E0D8D267
S113017083E0C2DF81EE94E00197F1F700C0000054
S113018083E0BADF92E39A95F1F783E0B5DF82E08A
S1130190B3DF89EF90E00197F1F700C0000081E040
S11301A08093880088E2A8DF8FE0A6DF81E0A4DFE7
S11301B086E0A2CF0895823040F4603148F490E4A0
S11301C0899F600D1124862F0AC080E4860F07C022
S11301D0613120F0862F8F70805C01C080E08093B5
S11301E08900806889CF0895CF93C82F80918900B2
S11301F0803119F460E081E0DEDF80918900803590
S113020020F01092890080E877DF61E089E0DAD19C
S113021000C04C2F42954F7061E080E0D1D259DF8D
S11302204C2F4F7061E080E0CBD253DF80E18A95A0
S1130230F1F700C0809189008F5F80938900CF918E
S11302400895805DD1CF0895CF93DF93EC01888129
S1130250882329F02196C8DF89918111FCCFDF9191
S1130260CF9108959C01892B81F040E0ADECBCEC6A
S113027054D49C0136952795369527953695279520
S11302804F5F2115310591F701C040E0842F089597
S1130290EF92FF920F931F93CF93DF937C01E2DFE2
S11302A0482F50E04150510914161506ACF490E063
S11302B0C1E0D0E09E01220F331FCC0FDD1FCC0F15
S11302C0DD1FCC0FDD1FC20FD31F9F5F292F30E02E
S11302D0241735077CF302C0C1E0D0E0E114F10437
S11302E049F1C701BE0105D4082F192F862FA9DFB4
S11302F0E02EF12E9E01ADECBCEC0FD4EC01D695B2
S1130300C795D695C795D695C795E114F10449F7D5
S1130310C230D10578F080E094DF9E01ADECBCECF6
S1130320FCD3EC01D695C795D695C795D695C795B8
S1130330209789F7DF91CF911F910F91FF90EF9054
S11303400895CF93DF9321E1829FC0011124EC0132
S1130350CA59DF4F88812BD034D0BC0180E090E0B3
S1130360D7D229813A814B815C8160D32D813E8132
S11303704F8158853DD229853A854B855C8556D376
S11303802D853E854F85588933D2DF91CF910895CD
S113039087B18F7387B93E9A86B1887F86B986B153
S11303A0876086B93598339A349A379A089597B105
S11303B0907E97B997B1892B87B9369A3699FECF33
S11303C0089564B175B180E090E0A2D220E030E0FD
S11303D040EA50E42BD320E030E040E85AE326D34F
S11303E06BD2CB010895982F977086958695869544
S11303F0813009F440C038F0823009F474C083308D
S113040009F4A9C00895611112C04AB321E030E093
S1130410B90102C0660F771F9A95E2F7CB01809568
S1130420942F98239ABB9BB389238BBB0895623086
S113043091F44AB321E030E0B90102C0660F771F9E
S11304409A95E2F7CB01962F909594239ABB9BB390
S1130450892B8BBB0895613009F0B3C04AB321E006
S113046030E0B90102C0660F771F9A95E2F7CB011D
S1130470842B8ABB0895611112C047B321E030E098
S1130480B90102C0660F771F9A95E2F7CB018095F8
S1130490942F982397BB98B3892388BB089562301F
S11304A091F447B321E030E0B90102C0660F771F31
S11304B09A95E2F7CB01962F9095942397BB98B326
S11304C0892B88BB0895613009F07BC047B321E0D4
S11304D030E0B90102C0660F771F9A95E2F7CB01AD
S11304E0842B87BB0895611112C044B321E030E02E
S11304F0B90102C0660F771F9A95E2F7CB01809588
S1130500942F982394BB95B3892385BB08956230B7
S113051091F444B321E030E0B90102C0660F771FC3
S11305209A95E2F7CB01962F9095942394BB95B3BB
S1130530892B85BB0895613009F043C044B321E0A1
S113054030E0B90102C0660F771F9A95E2F7CB013C
S1130550842B84BB0895611112C041B321E030E0C3
S1130560B90102C0660F771F9A95E2F7CB01809517
S1130570942F982391BB92B3892382BB0895623050
S113058091F441B321E030E0B90102C0660F771F56
S11305909A95E2F7CB01962F9095942391BB92B351
S11305A0892B82BB0895613061F441B321E030E0CE
S11305B0B90102C0660F771F9A95E2F7CB01842B2D
S11305C081BB0895982F977086958695869581307E
S11305D041F138F0823009F444C0833009F460C03A
S11305E0089561110EC04BB321E030E0B90102C09F
S11305F0660F771F9A95E2F7CB01809584238BBB16
S11306000895613009F06AC04BB321E030E0B901CC
S113061002C0660F771F9A95E2F7CB01842B8BBB40
S1130620089561110EC048B321E030E0B90102C061
S1130630660F771F9A95E2F7CB018095842388BBD8
S11306400895613009F04AC048B321E030E0B901AF
S113065002C0660F771F9A95E2F7CB01842B88BB03
S1130660089561110EC045B321E030E0B90102C024
S1130670660F771F9A95E2F7CB018095842385BB9B
S11306800895613059F545B321E030E0B90102C065
S1130690660F771F9A95E2F7CB01842B85BB0895EB
S11306A061110EC042B321E030E0B90102C0660F0F
S11306B0771F9A95E2F7CB018095842382BB089536
S11306C0613061F442B321E030E0B90102C0660F49
S11306D0771F9A95E2F7CB01842B82BB0895813072
S11306E041F028F0823039F0833039F008956BBB43
S11306F0089568BB089565BB089562BB0895813071
S113070041F028F0823039F0833039F007C099B3D2
S113071005C096B303C093B301C090B3892F089565
S11307208130C1F028F0823039F18330B9F1089575
S1130730613049F48AB38F7090E1499FA00111247C
S1130740482B4ABB089561113AC08AB3807F482B75
S11307504ABB0895613049F487B38F7090E1499F93
S1130760A0011124482B47BB0895611128C087B309
S1130770807F482B47BB0895613049F484B38F7060
S113078090E1499FA0011124482B44BB08956111B5
S113079016C084B3807F482B44BB0895613049F46C
S11307A081B38F7090E1499FA0011124482B41BB74
S11307B00895611104C081B3807F482B41BB089523
S11307C0CF93DF93D82FC42F613041F498DF8F701B
S11307D090E1C99FB0011124682B04C090DF807F91
S11307E0682F6C2B8D2F7BDFDF91CF9108955058AC
S11307F0BB27AA270ED0E0C0D1D030F0D6D020F04D
S113080031F49F3F11F41EF4C6C00EF4E095E7FBEB
S1130810BCC0E92FE2D080F3BA17620773078407DC
S1130820950718F071F49EF5FAC00EF4E0950B2EBE
S1130830BA2FA02D0B01B90190010C01CA01A0012E
S11308401124FF27591B99F0593F50F4503E68F189
S11308501A16F040A22F232F342F4427585FF3CFCA
S1130860469537952795A795F0405395C9F77EF49B
S11308701F16BA0B620B730B840BBAF09150A1F0E4
S1130880FF0FBB1F661F771F881FC2F70EC0BA0F6A
S1130890621F731F841F48F4879577956795B795F2
S11308A0F7959E3F08F0B3CF9395880F08F09927EA
S11308B0EE0F97958795089598D088F09F5790F0FC
S11308C0B92F9927B751A0F0D1F0660F771F881F71
S11308D0991F1AF0BA95C9F712C0B13081F09FD0B0
S11308E0B1E008959CC0672F782F8827B85F39F04E
S11308F0B93FCCF3869577956795B395D9F73EF4D0
S113090090958095709561957F4F8F4F9F4F089577
S1130910E89409C097FB3EF4909580957095619595
S11309207F4F8F4F9F4F9923A9F0F92F96E9BB274B
S11309309395F695879577956795B795F111F8CFC7
S1130940FAF4BB0F11F460FF1BC06F5F7F4F8F4F32
S11309509F4F16C0882311F096E911C0772321F028
S11309609EE8872F762F05C0662371F096E8862FC0
S113097070E060E02AF09A95660F771F881FDAF717
S1130980880F9695879597F9089597F99F6780E85A
S113099070E060E008959FEF80EC089500240A94CD
S11309A01616170618060906089500240A94121646
S11309B01306140605060895092E0394000C11F479
S11309C0882352F0BB0F40F4BF2B11F460FF04C026
S11309D06F5F7F4F8F4F9F4F089557FD9058440F7F
S11309E0551F59F05F3F71F04795880F97FB991F8A
S11309F061F09F3F79F08795089512161306140647
S1130A00551FF2CF4695F1DF08C0161617061806D3
S1130A10991FF1CF86957105610508940895E894AE
S1130A20BB2766277727CB0197F908950BD0C4CF4E
S1130A30B5DF28F0BADF18F0952309F0A6CFABCFC5
S1130A401124EECFCADFA0F3959FD1F3950F50E0A8
S1130A50551F629FF001729FBB27F00DB11D639F6C
S1130A60AA27F00DB11DAA1F649F6627B00DA11D12
S1130A70661F829F2227B00DA11D621F739FB00DB8
S1130A80A11D621F839FA00D611D221F749F332728
S1130A90A00D611D231F849F600D211D822F762FC1
S1130AA06A2F11249F5750408AF0E1F088234AF0BE
S1130AB0EE0FFF1FBB1F661F771F881F915050400A
S1130AC0A9F79E3F510570F060CFAACF5F3FECF3CA
S1130AD0983EDCF3869577956795B795F795E795F6
S1130AE09F5FC1F7FE2B880F911D9695879597F907
S1130AF00895AA1BBB1B51E107C0AA1FBB1FA61761
S1130B00B70710F0A61BB70B881F991F5A95A9F7B2
S1130B1080959095BC01CD010895A29FB001B39F2B
S1130B20C001A39F700D811D1124911DB29F700DF2
S10F0B30811D1124911D0895F894FFCF3D
S1130B3C54656D703A00000000803F000000000016
S1130B4C00C84200000000009A99A940333333C016
S10B0B5CCDCCACC000009142B5
S9030000FC
