S014000050726F6A6563745F546573742E737265633A
S113000029C000002FC000002DC000002BC000003C
S113001029C0000027C0000025C0000023C0000044
S113002021C000001FC000001DC000001BC0000054
S113003019C0000017C0000015C0000013C0000064
S113004011C000000FC000000DC000000BC0000074
S113005009C0000011241FBECFE5D8E0DEBFCDBF2C
S113006002D093C2CDCF90D072D088E06DD08EE113
S11300706BD08AE169D00F2EFAE1EF2EF02DC12C5E
S113008000E0A12CB12CD12C99249394F12C83E67B
S11300908E153CF0EE2034F40F2EF3E6EF2EF02D07
S11300A001C0E12CB11007C088E058D0882319F0B2
S11300B0E394B92C05C088E051D0811101C0BD2C56
S11300C0A11007C08EE14AD0882319F0EA94A92C24
S11300D005C08EE143D0811101C0AD2C011104C0D3
S11300E08AE13CD0811108C08AE138D0811101C075
S11300F00D2DC11003C025C0C92C092DEE20F4F428
S113010020C01D2F8D2F78D08AE128D0882311F0AC
S113011001110CC08AE122D0882339F08AE11ED073
S11301208111FCCFCD2C0D2D0CC00F2DC15049F7E2
S1130130CC2039F0EE24EA94E10E1AF0C2E3DE2D6D
S1130140E0CF8E2D59D0A3CF60E06DC0089561E05B
S113015083E069D060E083E055C10895CF93C82F50
S1130160DED1813069F483ED90E30197F1F700C0AB
S113017000008C2FD4D191E0813019F090E001C0BF
S113018090E0892FCF91089561E089E04CD061E03F
S11301908AE049D061E089E035D160E08AE032D17B
S11301A08AB3806F8ABB8BB38F708BBB08956A3020
S11301B038F49BB39F706295607F692B6BBB03C05F
S11301C09BB39F709BBB882319F0813041F00DC015
S11301D061E089E017D160E08AE014D106C060E0F4
S11301E089E010D161E08AE00DD18FE39CE90197A9
S11301F0F1F700C000000895CF93CDEC8C9FC12D82
S11302001124C695C695C6952C2F220F922F990FAF
S1130210990F920F682F691B80E0C9DF6C2F81E072
S1130220C6DFCF910895982F977086958695869509
S1130230813009F440C038F0823009F474C083304E
S113024009F4A9C00895611112C04AB321E030E055
S1130250B90102C0660F771F9A95E2F7CB0180952A
S1130260942F98239ABB9BB389238BBB0895623048
S113027091F44AB321E030E0B90102C0660F771F60
S11302809A95E2F7CB01962F909594239ABB9BB352
S1130290892B8BBB0895613009F0B3C04AB321E0C8
S11302A030E0B90102C0660F771F9A95E2F7CB01DF
S11302B0842B8ABB0895611112C047B321E030E05A
S11302C0B90102C0660F771F9A95E2F7CB018095BA
S11302D0942F982397BB98B3892388BB08956230E1
S11302E091F447B321E030E0B90102C0660F771FF3
S11302F09A95E2F7CB01962F9095942397BB98B3E8
S1130300892B88BB0895613009F07BC047B321E095
S113031030E0B90102C0660F771F9A95E2F7CB016E
S1130320842B87BB0895611112C044B321E030E0EF
S1130330B90102C0660F771F9A95E2F7CB01809549
S1130340942F982394BB95B3892385BB0895623079
S113035091F444B321E030E0B90102C0660F771F85
S11303609A95E2F7CB01962F9095942394BB95B37D
S1130370892B85BB0895613009F043C044B321E063
S113038030E0B90102C0660F771F9A95E2F7CB01FE
S1130390842B84BB0895611112C041B321E030E085
S11303A0B90102C0660F771F9A95E2F7CB018095D9
S11303B0942F982391BB92B3892382BB0895623012
S11303C091F441B321E030E0B90102C0660F771F18
S11303D09A95E2F7CB01962F9095942391BB92B313
S11303E0892B82BB0895613061F441B321E030E090
S11303F0B90102C0660F771F9A95E2F7CB01842BEF
S113040081BB0895982F977086958695869581303F
S113041041F138F0823009F444C0833009F460C0FB
S1130420089561110EC04BB321E030E0B90102C060
S1130430660F771F9A95E2F7CB01809584238BBBD7
S11304400895613009F06AC04BB321E030E0B9018E
S113045002C0660F771F9A95E2F7CB01842B8BBB02
S1130460089561110EC048B321E030E0B90102C023
S1130470660F771F9A95E2F7CB018095842388BB9A
S11304800895613009F04AC048B321E030E0B90171
S113049002C0660F771F9A95E2F7CB01842B88BBC5
S11304A0089561110EC045B321E030E0B90102C0E6
S11304B0660F771F9A95E2F7CB018095842385BB5D
S11304C00895613059F545B321E030E0B90102C027
S11304D0660F771F9A95E2F7CB01842B85BB0895AD
S11304E061110EC042B321E030E0B90102C0660FD1
S11304F0771F9A95E2F7CB018095842382BB0895F8
S1130500613061F442B321E030E0B90102C0660F0A
S1130510771F9A95E2F7CB01842B82BB0895282F8D
S11305202770869586958695813081F028F08230F3
S1130530B9F08330F9F027C089B390E002C09595F3
S113054087952A95E2F7982F91701DC086B390E0A5
S113055002C0959587952A95E2F7982F917013C05C
S113056083B390E002C0959587952A95E2F7982F7A
S1130570917009C080B390E002C0959587952A9543
S1110580E2F7982F9170892F0895F894FFCF19
S9030000FC
