S014000050726F6A6563745F546573742E737265633A
S113000029C000002FC000002DC000002BC000003C
S113001029C0000027C0000025C0000023C0000044
S113002021C000001FC000001DC000001BC0000054
S113003019C0000017C0000015C0000013C0000064
S113004011C000000FC000000DC000000BC0000074
S113005009C0000011241FBECFE5D8E0DEBFCDBF2C
S113006002D072C2CDCF6DD08FED9EE20197F1F731
S113007000C0000081E48BD082E489D09FEF23ED9F
S113008080E3915020408040E1F700C0000083E409
S11300907ED084E47CD08FE19EE40197F1F700C028
S11300A0000081E02DD080E82BD08FE19EE4019701
S11300B0F1F700C0000081E46AD082E468D09FEFC9
S11300C023ED80E3915020408040E1F700C0000020
S11300D083E45DD084E45BD0FFCF61E08BE05FD14B
S11300E089EF90E00197F1F700C0000060E08BE039
S11300F056D189EF90E00197F1F700C00000089510
S1130100CF93C82F60E089E04AD100C04C2F4295BC
S11301104F7061E080E001D2E0DF4C2F4F7061E06E
S113012080E0FBD1DADF80E18A95F1F700C0C130CD
S113013031F483EF91E00197F1F700C00000CF9113
S113014008956FEF80E0B8D161E08BE039D061E0D1
S113015089E036D061E08AE033D083ED90E3019703
S1130160F1F700C0000060E08AE019D182E0C8DF46
S113017088E2C6DF8FE0C4DF86E0C2DF81E0C0DF53
S113018081EE94E00197F1F700C000000895CF9349
S1130190C82F61E089E003D100C04C2F42954F7015
S11301A061E080E0BAD199DF4C2F4F7061E080E0CC
S11301B0B4D193DF80E18A95F1F700C0CF9108951F
S11301C0982F9770869586958695813009F440C05E
S11301D038F0823009F474C0833009F4A9C008955A
S11301E0611112C04AB321E030E0B90102C0660FC8
S11301F0771F9A95E2F7CB018095942F98239ABBA9
S11302009BB389238BBB0895623091F44AB321E0F8
S113021030E0B90102C0660F771F9A95E2F7CB016F
S1130220962F909594239ABB9BB3892B8BBB0895EF
S1130230613009F0B3C04AB321E030E0B90102C033
S1130240660F771F9A95E2F7CB01842B8ABB08953A
S1130250611112C047B321E030E0B90102C0660F5A
S1130260771F9A95E2F7CB018095942F982397BB3B
S113027098B3892388BB0895623091F447B321E091
S113028030E0B90102C0660F771F9A95E2F7CB01FF
S1130290962F9095942397BB98B3892B88BB089588
S11302A0613009F07BC047B321E030E0B90102C0FE
S11302B0660F771F9A95E2F7CB01842B87BB0895CD
S11302C0611112C044B321E030E0B90102C0660FED
S11302D0771F9A95E2F7CB018095942F982394BBCE
S11302E095B3892385BB0895623091F444B321E02A
S11302F030E0B90102C0660F771F9A95E2F7CB018F
S1130300962F9095942394BB95B3892B85BB089520
S1130310613009F043C044B321E030E0B90102C0C8
S1130320660F771F9A95E2F7CB01842B84BB08955F
S1130330611112C041B321E030E0B90102C0660F7F
S1130340771F9A95E2F7CB018095942F982391BB60
S113035092B3892382BB0895623091F441B321E0C2
S113036030E0B90102C0660F771F9A95E2F7CB011E
S1130370962F9095942391BB92B3892B82BB0895B9
S1130380613061F441B321E030E0B90102C0660F8D
S1130390771F9A95E2F7CB01842B81BB0895982FA0
S11303A09770869586958695813041F138F0823034
S11303B009F444C0833009F460C0089561110EC08B
S11303C04BB321E030E0B90102C0660F771F9A9564
S11303D0E2F7CB01809584238BBB0895613009F04B
S11303E06AC04BB321E030E0B90102C0660F771F49
S11303F09A95E2F7CB01842B8BBB089561110EC053
S113040048B321E030E0B90102C0660F771F9A9526
S1130410E2F7CB018095842388BB0895613009F00D
S11304204AC048B321E030E0B90102C0660F771F2B
S11304309A95E2F7CB01842B88BB089561110EC015
S113044045B321E030E0B90102C0660F771F9A95E9
S1130450E2F7CB018095842385BB0895613059F57B
S113046045B321E030E0B90102C0660F771F9A95C9
S1130470E2F7CB01842B85BB089561110EC042B312
S113048021E030E0B90102C0660F771F9A95E2F7C8
S1130490CB018095842382BB0895613061F442B31B
S11304A021E030E0B90102C0660F771F9A95E2F7A8
S11304B0CB01842B82BB0895813041F028F0823037
S11304C039F0833039F008956ABB089567BB089505
S11304D064BB089561BB0895813041F028F08230F7
S11304E039F0833039F008956BBB089568BB0895E3
S11304F065BB089562BB0895813041F028F08230D5
S113050039F0833039F007C099B305C096B303C0FE
S113051093B301C090B3892F0895CF93DF93D82F5D
S1130520C42F613041F4E8DF8F7090E1C99FB001BE
S11305301124682B04C0E0DF807F682F6C2B8D2F83
S10F0540CBDFDF91CF910895F894FFCF3A
S9030000FC
