S014000050726F6A6563745F546573742E737265633A
S113000029C000002FC000002DC000002BC000003C
S113001029C0000027C0000025C0000023C0000044
S113002021C000001FC000001DC000001BC0000054
S113003019C0000017C0000015C0000013C0000064
S113004011C000000FC000000DC000000BC0000074
S113005009C0000011241FBECFE5D8E0DEBFCDBF2C
S113006002D0A7C0CDCF61E08BE016D02FEF87EA96
S113007091E6215080409040E1F700C0000060E02C
S11300808BE00AD02FEF87EA91E621508040904020
S1130090E1F700C00000E7CF982F9770869586950A
S11300A08695813041F138F0823009F444C08330C0
S11300B009F460C0089561110EC04BB321E030E033
S11300C0B90102C0660F771F9A95E2F7CB018095BC
S11300D084238BBB0895613009F06AC04BB321E0DF
S11300E030E0B90102C0660F771F9A95E2F7CB01A1
S11300F0842B8BBB089561110EC048B321E030E01E
S1130100B90102C0660F771F9A95E2F7CB0180957B
S1130110842388BB0895613009F04AC048B321E0C4
S113012030E0B90102C0660F771F9A95E2F7CB0160
S1130130842B88BB089561110EC045B321E030E0E3
S1130140B90102C0660F771F9A95E2F7CB0180953B
S1130150842385BB0895613059F545B321E030E02F
S1130160B90102C0660F771F9A95E2F7CB01842B81
S113017085BB089561110EC042B321E030E0B9019E
S113018002C0660F771F9A95E2F7CB01809584230E
S113019082BB0895613061F442B321E030E0B901DB
S11301A002C0660F771F9A95E2F7CB01842B82BBBE
S10901B00895F894FFCF4E
S9030000FC
