S014000050726F6A6563745F546573742E737265633A
S113000029C0000042C0000040C000003EC0000003
S11300103CC000003AC0000038C0000036C00000F8
S113002034C0000032C0000030C000002EC0000008
S11300302CC000002AC0000028C0000026C0000018
S113004024C0000022C0000020C000001EC0000028
S11300501CC0000011241FBECFE5D8E0DEBFCDBF19
S113006010E0A0E6B0E0E6E0F8E002C005900D92F2
S1130070AC36B107D9F720E0ACE6B0E001C01D9280
S1130080AC36B207E1F702D0BCC3BACF1AD062E0F3
S113009070E08AE090E035D02FEF87EA91E62150B6
S11300A080409040E1F700C00000F1CF009741F09C
S11300B0E9EFF0E03197F1F700C000000197C1F7D4
S11300C00895EF92FF920F931F93CF93DF93C8E6A7
S11300D0D0E00F2EFCE6EF2EF0E0FF2EF02D8E0187
S11300E061E0899150D061E0F80180813BD1CE1567
S11300F0DF05A9F7DF91CF911F910F91FF90EF904A
S11301000895CF92DF92EF92FF920F931F93CF93B4
S1130110DF93EC0180E090E083D29B01AC0160E0CE
S113012070E08AE794E4E3D14FD26B01BE01DD0FA6
S1130130880B990B77D221E63BE046E35EE3FED2DF
S11301403ED27B01672BB1F000E010E0C0E0D0E0CC
S1130150C770D078FE01FF27E05AFF4F408161E06D
S113016083E0AED1C601A2DFCF5F0F5F1F4F0E1534
S11301701F0569F7DF91CF911F910F91FF90EF90C9
S1130180DF90CF900895982F9770869586958695E1
S1130190813009F440C038F0823009F474C08330EF
S11301A009F4A9C00895611112C04AB321E030E0F6
S11301B0B90102C0660F771F9A95E2F7CB018095CB
S11301C0942F98239ABB9BB389238BBB08956230E9
S11301D091F44AB321E030E0B90102C0660F771F01
S11301E09A95E2F7CB01962F909594239ABB9BB3F3
S11301F0892B8BBB0895613009F0B3C04AB321E069
S113020030E0B90102C0660F771F9A95E2F7CB017F
S1130210842B8ABB0895611112C047B321E030E0FA
S1130220B90102C0660F771F9A95E2F7CB0180955A
S1130230942F982397BB98B3892388BB0895623081
S113024091F447B321E030E0B90102C0660F771F93
S11302509A95E2F7CB01962F9095942397BB98B388
S1130260892B88BB0895613009F07BC047B321E036
S113027030E0B90102C0660F771F9A95E2F7CB010F
S1130280842B87BB0895611112C044B321E030E090
S1130290B90102C0660F771F9A95E2F7CB018095EA
S11302A0942F982394BB95B3892385BB089562301A
S11302B091F444B321E030E0B90102C0660F771F26
S11302C09A95E2F7CB01962F9095942394BB95B31E
S11302D0892B85BB0895613009F043C044B321E004
S11302E030E0B90102C0660F771F9A95E2F7CB019F
S11302F0842B84BB0895611112C041B321E030E026
S1130300B90102C0660F771F9A95E2F7CB01809579
S1130310942F982391BB92B3892382BB08956230B2
S113032091F441B321E030E0B90102C0660F771FB8
S11303309A95E2F7CB01962F9095942391BB92B3B3
S1130340892B82BB0895613061F441B321E030E030
S1130350B90102C0660F771F9A95E2F7CB01842B8F
S113036081BB0895982F97708695869586958130E0
S113037041F138F0823009F444C0833009F460C09C
S1130380089561110EC04BB321E030E0B90102C001
S1130390660F771F9A95E2F7CB01809584238BBB78
S11303A00895613009F06AC04BB321E030E0B9012F
S11303B002C0660F771F9A95E2F7CB01842B8BBBA3
S11303C0089561110EC048B321E030E0B90102C0C4
S11303D0660F771F9A95E2F7CB018095842388BB3B
S11303E00895613009F04AC048B321E030E0B90112
S11303F002C0660F771F9A95E2F7CB01842B88BB66
S1130400089561110EC045B321E030E0B90102C086
S1130410660F771F9A95E2F7CB018095842385BBFD
S11304200895613059F545B321E030E0B90102C0C7
S1130430660F771F9A95E2F7CB01842B85BB08954D
S113044061110EC042B321E030E0B90102C0660F71
S1130450771F9A95E2F7CB018095842382BB089598
S1130460613061F442B321E030E0B90102C0660FAB
S1130470771F9A95E2F7CB01842B82BB08958130D4
S113048041F028F0823039F0833039F008956BBBA5
S1130490089568BB089565BB089562BB08958130D3
S11304A041F028F0823039F0833039F007C099B335
S11304B005C096B303C093B301C090B3892F0895C8
S11304C0CF93DF93D82FC42F613041F4E8DF8F70CE
S11304D090E1C99FB0011124682B04C0E0DF807F44
S11304E0682F6C2B8D2FCBDFDF91CF9108950CD02B
S11304F0EBC0E3D040F0DAD030F021F45F3F19F0E4
S1130500CCC0511115C1CFC0F0D098F39923C9F3D1
S11305105523B1F3951B550BBB27AA276217730705
S1130520840738F09F5F5F4F220F331F441FAA1FB9
S1130530A9F333D00E2E3AF0E0E830D09150504079
S1130540E695001CCAF729D0FE2F27D0660F771F27
S1130550881FBB1F261737074807AB07B0E809F009
S1130560BB0B802DBF01FF2793585F4F2AF09E3F9E
S1130570510568F092C0DCC05F3FECF3983EDCF3B9
S1130580869577956795B795F7959F5FC9F7880F17
S1130590911D9695879597F90895E1E0660F771F69
S11305A0881FBB1F621773078407BA0720F0621BFA
S11305B0730B840BBA0BEE1F88F7E095089504D0F3
S11305C06894B111B5C0089598D088F09F5790F001
S11305D0B92F9927B751A0F0D1F0660F771F881F64
S11305E0991F1AF0BA95C9F712C0B13081F09FD0A3
S11305F0B1E008959CC0672F782F8827B85F39F041
S1130600B93FCCF3869577956795B395D9F73EF4C2
S113061090958095709561957F4F8F4F9F4F08956A
S1130620E89409C097FB3EF4909580957095619588
S11306307F4F8F4F9F4F9923A9F0F92F96E9BB273E
S11306409395F695879577956795B795F111F8CFBA
S1130650FAF4BB0F11F460FF1BC06F5F7F4F8F4F25
S11306609F4F16C0882311F096E911C0772321F01B
S11306709EE8872F762F05C0662371F096E8862FB3
S113068070E060E02AF09A95660F771F881FDAF70A
S1130690880F9695879597F9089597F99F6780E84D
S11306A070E060E008959FEF80EC089500240A94C0
S11306B01616170618060906089500240A94121639
S11306C01306140605060895092E0394000C11F46C
S11306D0882352F0BB0F40F4BF2B11F460FF04C019
S11306E06F5F7F4F8F4F9F4F089557FD9058440F72
S11306F0551F59F05F3F71F04795880F97FB991F7D
S113070061F09F3F79F08795089512161306140639
S1130710551FF2CF4695F1DF08C0161617061806C6
S1130720991FF1CF86957105610508940895E894A1
S1130730BB2766277727CB0197F908950BD0C4CF41
S1130740B5DF28F0BADF18F0952309F0A6CFABCFB8
S11307501124EECFCADFA0F3959FD1F3950F50E09B
S1130760551F629FF001729FBB27F00DB11D639F5F
S1130770AA27F00DB11DAA1F649F6627B00DA11D05
S1130780661F829F2227B00DA11D621F739FB00DAB
S1130790A11D621F839FA00D611D221F749F33271B
S11307A0A00D611D231F849F600D211D822F762FB4
S11307B06A2F11249F5750408AF0E1F088234AF0B1
S11307C0EE0FFF1FBB1F661F771F881F91505040FD
S11307D0A9F79E3F510570F060CFAACF5F3FECF3BD
S11307E0983EDCF3869577956795B795F795E795E9
S11307F09F5FC1F7FE2B880F911D9695879597F9FA
S10908000895F894FFCFF7
S10F08060E0C0D090B0307061C1D1E1F21
S9030000FC
