S014000050726F6A6563745F546573742E737265633A
S113000029C0000042C0000040C000003EC0000003
S11300103CC000003AC0000038C0000036C00000F8
S113002034C0000032C0000030C000002EC0000008
S11300302CC000002AC0000028C0000026C0000018
S113004024C0000022C0000020C000001EC0000028
S11300501CC0000011241FBECFE5D8E0DEBFCDBF19
S113006010E0A0E6B0E0E4E5F7E002C005900D92F0
S1130070A837B107D9F720E0A8E7B0E001C01D9286
S1130080A937B207E1F702D063C3BACF02D18FE335
S11300909CE90197F1F700C0000013D04FD0C82F9E
S11300A08E34E1F32ED1CA3211F481E0D0D09FEF27
S11300B021EE84E0915020408040E1F700C0000030
S11300C0EDCFCF92DF92EF92FF920F931F93CF93D6
S11300D0DF9361E08FE042D161E08EE03FD161E0E7
S11300E08DE03CD161E08CE039D1C0E7D0E004E799
S11300F010E00F2EF4E7CF2EF0E0DF2EF02D7E017E
S113010060E089912BD161E0F701808116D261E032
S1130110F80181918F0111D2CC15DD0581F78FE1B2
S11301209EE40197F1F700C00000DF91CF911F9189
S11301300F91FF90EF90DF90CF9008956F927F9290
S11301408F929F92AF92BF92CF92DF92EF92FF92E3
S11301500F931F93CF93DF9304E710E0E12CF12C6E
S11301603701580160E0F8018081E7D18FE39FE116
S11301700197F1F700C000000F2EF0E78F2EF0E09A
S11301809F2EF02DC0E0D0E06E01F401808162D298
S113019081111FC0FFEF29EF80E0F1502040804023
S11301A0E1F700C00000F401808154D2811111C034
S11301B0C059DF4F88814ED28823E1F3F301EE0F5B
S11301C0FF1FEE0FFF1FE05AFF4FEC0DFD1D808156
S11301D01CC02196FFEF8F1A9F0AC430D105A1F6E7
S11301E00F5F1F4F61E0F5018081A7D18FE39FE18D
S11301F00197F1F700C000009FEFE91AF90AE4E063
S1130200EE16F10409F0ACCF8EE4DF91CF911F918B
S11302100F91FF90EF90DF90CF90BF90AF909F90A1
S11302208F907F906F90089561E08BE086D189EF85
S113023090E00197F1F700C0000060E08BE07DD111
S113024089EF90E00197F1F700C000000895CF9383
S1130250C82F60E089E071D100C04C2F42954F70E7
S113026061E080E05ED2E0DF4C2F4F7061E080E01F
S113027058D2DADF80E18A95F1F700C0C150C2306C
S113028030F483EF91E00197F1F700C00000CF91C3
S113029008956FEF80E014D261E08BE05FD061E0FD
S11302A089E05CD061E08AE059D083ED90E3019766
S11302B0F1F700C0000060E08AE03FD182E0C7DFD0
S11302C088E2C5DF8FE0C3DF81E0C1DF86E0BFCF16
S11302D00895823040F4603148F4962F20E4829FE0
S11302E0900D112408C090E4960F05C0613118F0F8
S11302F06F7090E4960F90937800892F8068A7CF51
S11303000895CF93C82F80917800803119F460E06C
S113031081E0DFDF80917800803520F01092780052
S113032080E895DF61E089E008D100C04C2F429558
S11303304F7061E080E0F5D177DF4C2F4F7061E0C2
S113034080E0EFD171DF80E18A95F1F700C0809100
S113035078008F5F80937800CF910895982F9770DD
S1130360869586958695813009F440C038F08230B0
S113037009F474C0833009F4A9C00895611112C04E
S11303804AB321E030E0B90102C0660F771F9A95A5
S1130390E2F7CB018095942F98239ABB9BB38923D2
S11303A08BBB0895623091F44AB321E030E0B90187
S11303B002C0660F771F9A95E2F7CB01962F9095AE
S11303C094239ABB9BB3892B8BBB0895613009F0AE
S11303D0B3C04AB321E030E0B90102C0660F771F11
S11303E09A95E2F7CB01842B8ABB0895611112C060
S11303F047B321E030E0B90102C0660F771F9A9538
S1130400E2F7CB018095942F982397BB98B3892367
S113041088BB0895623091F447B321E030E0B9011C
S113042002C0660F771F9A95E2F7CB01962F90953D
S1130430942397BB98B3892B88BB0895613009F046
S11304407BC047B321E030E0B90102C0660F771FDB
S11304509A95E2F7CB01842B87BB0895611112C0F2
S113046044B321E030E0B90102C0660F771F9A95CA
S1130470E2F7CB018095942F982394BB95B38923FD
S113048085BB0895623091F444B321E030E0B901B2
S113049002C0660F771F9A95E2F7CB01962F9095CD
S11304A0942394BB95B3892B85BB0895613009F0DF
S11304B043C044B321E030E0B90102C0660F771FA6
S11304C09A95E2F7CB01842B84BB0895611112C085
S11304D041B321E030E0B90102C0660F771F9A955D
S11304E0E2F7CB018095942F982391BB92B3892393
S11304F082BB0895623091F441B321E030E0B90148
S113050002C0660F771F9A95E2F7CB01962F90955C
S1130510942391BB92B3892B82BB0895613061F41B
S113052041B321E030E0B90102C0660F771F9A950C
S1130530E2F7CB01842B81BB0895982F97708695A1
S113054086958695813041F138F0823009F444C0B3
S1130550833009F460C0089561110EC04BB321E0EB
S113056030E0B90102C0660F771F9A95E2F7CB011C
S1130570809584238BBB0895613009F06AC04BB326
S113058021E030E0B90102C0660F771F9A95E2F7C7
S1130590CB01842B8BBB089561110EC048B321E0BD
S11305A030E0B90102C0660F771F9A95E2F7CB01DC
S11305B08095842388BB0895613009F04AC048B30C
S11305C021E030E0B90102C0660F771F9A95E2F787
S11305D0CB01842B88BB089561110EC045B321E083
S11305E030E0B90102C0660F771F9A95E2F7CB019C
S11305F08095842385BB0895613059F545B321E086
S113060030E0B90102C0660F771F9A95E2F7CB017B
S1130610842B85BB089561110EC042B321E030E004
S1130620B90102C0660F771F9A95E2F7CB01809556
S1130630842382BB0895613061F442B321E030E049
S1130640B90102C0660F771F9A95E2F7CB01842B9C
S113065082BB0895282F27708695869586958130CC
S113066081F028F08230B9F08330F9F027C089B3E3
S113067090E002C0959587952A95E2F7982F91709E
S11306801DC086B390E002C0959587952A95E2F740
S1130690982F917013C083B390E002C0959587950D
S11306A02A95E2F7982F917009C080B390E002C0B8
S11306B0959587952A95E2F7982F9170892F08953B
S11306C0813041F028F0823039F0833039F00895D8
S11306D06ABB089567BB089564BB089561BB089520
S11306E0813041F028F0823039F0833039F00895B8
S11306F06BBB089568BB089565BB089562BB0895FC
S1130700813041F028F0823039F0833039F007C06D
S113071099B305C096B303C093B301C090B3892FB6
S11307200895CF93DF93D82FC42F613041F4E8DFCD
S11307308F7090E1C99FB0011124682B04C0E0DFE1
S1130740807F682F6C2B8D2FCBDFDF91CF910895A5
S1070750F894FFCF47
S11307543132334134353642373839432A3023442D
S10B0764161514130F0E0D0C01
S9030000FC
