S014000050726F6A6563745F546573742E737265633A
S113000029C0000042C0000040C000003EC0000003
S11300103CC000003AC0000038C0000036C00000F8
S113002034C0000032C0000030C000002EC0000008
S11300302CC000002AC0000028C0000026C0000018
S113004024C0000022C0000020C000001EC0000028
S11300501CC0000011241FBECFE5D8E0DEBFCDBF19
S113006010E0A0E6B0E0E6ECF5E002C005900D92E9
S1130070A436B107D9F720E0A4E6B0E001C01D9290
S1130080A436B207E1F702D09CC2BACF1AD06AE014
S113009070E088E691E01ED02FEF80E792E02150D7
S11300A080409040E1F700C00000F1CF009741F09C
S11300B0E9EFF0E03197F1F700C000000197C1F7D4
S11300C008954FE061E083E08BD04FE061E083E08E
S11300D0D7C00895AF92BF92CF92DF92EF92FF9272
S11300E00F931F93CF93DF93EC0180E090E078D1DE
S11300F09B01AC0160E070E08AE794E4D8D044D17D
S11301005B01BE010D2E000C880B990B6BD121E60F
S11301103BE046EB5DE3F2D132D19B01772324F43B
S113012022273327261B370B932F1C161D062CF072
S113013083E0CC24CA94DC2C04C080E0CC24C39497
S1130140D12CE22EF92EE114F104F1F000E010E0DC
S1130150C82FD0E0FE01E05AFF4F408161E083E008
S11301608FD0C501A3DFCE018C0D9D1D0496837035
S11301709078992324F401978C6F9F6F01960F5FF9
S11301801F4F0E151F0521F7DF91CF911F910F917E
S1130190FF90EF90DF90CF90BF90AF9008958130A3
S11301A041F028F0823039F0833039F008956BBB88
S11301B0089568BB089565BB089562BB08958130B6
S11301C041F028F0823039F0833039F007C099B318
S11301D005C096B303C093B301C090B3892F0895AB
S11301E08130C1F028F0823039F18330B9F10895BB
S11301F0613049F48AB38F7090E1499FA0011124C2
S1130200482B4ABB089561113AC08AB3807F482BBA
S11302104ABB0895613049F487B38F7090E1499FD8
S1130220A0011124482B47BB0895611128C087B34E
S1130230807F482B47BB0895613049F484B38F70A5
S113024090E1499FA0011124482B44BB08956111FA
S113025016C084B3807F482B44BB0895613049F4B1
S113026081B38F7090E1499FA0011124482B41BBB9
S11302700895611104C081B3807F482B41BB089568
S1130280CF93DF93D82FC42F613041F498DF8F7060
S113029090E1C99FB0011124682B04C090DF807FD6
S11302A0682F6C2B8D2F7BDFDF91CF9108950CD0BD
S11302B0EBC0E3D040F0DAD030F021F45F3F19F026
S11302C0CCC0511115C1CFC0F0D098F39923C9F314
S11302D05523B1F3951B550BBB27AA276217730748
S11302E0840738F09F5F5F4F220F331F441FAA1FFC
S11302F0A9F333D00E2E3AF0E0E830D091505040BC
S1130300E695001CCAF729D0FE2F27D0660F771F69
S1130310881FBB1F261737074807AB07B0E809F04B
S1130320BB0B802DBF01FF2793585F4F2AF09E3FE0
S1130330510568F092C0DCC05F3FECF3983EDCF3FB
S1130340869577956795B795F7959F5FC9F7880F59
S1130350911D9695879597F90895E1E0660F771FAB
S1130360881FBB1F621773078407BA0720F0621B3C
S1130370730B840BBA0BEE1F88F7E095089504D035
S11303806894B111B5C0089598D088F09F5790F043
S1130390B92F9927B751A0F0D1F0660F771F881FA6
S11303A0991F1AF0BA95C9F712C0B13081F09FD0E5
S11303B0B1E008959CC0672F782F8827B85F39F083
S11303C0B93FCCF3869577956795B395D9F73EF405
S11303D090958095709561957F4F8F4F9F4F0895AD
S11303E0E89409C097FB3EF49095809570956195CB
S11303F07F4F8F4F9F4F9923A9F0F92F96E9BB2781
S11304009395F695879577956795B795F111F8CFFC
S1130410FAF4BB0F11F460FF1BC06F5F7F4F8F4F67
S11304209F4F16C0882311F096E911C0772321F05D
S11304309EE8872F762F05C0662371F096E8862FF5
S113044070E060E02AF09A95660F771F881FDAF74C
S1130450880F9695879597F9089597F99F6780E88F
S113046070E060E008959FEF80EC089500240A9402
S11304701616170618060906089500240A9412167B
S11304801306140605060895092E0394000C11F4AE
S1130490882352F0BB0F40F4BF2B11F460FF04C05B
S11304A06F5F7F4F8F4F9F4F089557FD9058440FB4
S11304B0551F59F05F3F71F04795880F97FB991FBF
S11304C061F09F3F79F0879508951216130614067C
S11304D0551FF2CF4695F1DF08C016161706180609
S11304E0991FF1CF86957105610508940895E894E4
S11304F0BB2766277727CB0197F908950BD0C4CF84
S1130500B5DF28F0BADF18F0952309F0A6CFABCFFA
S11305101124EECFCADFA0F3959FD1F3950F50E0DD
S1130520551F629FF001729FBB27F00DB11D639FA1
S1130530AA27F00DB11DAA1F649F6627B00DA11D47
S1130540661F829F2227B00DA11D621F739FB00DED
S1130550A11D621F839FA00D611D221F749F33275D
S1130560A00D611D231F849F600D211D822F762FF6
S11305706A2F11249F5750408AF0E1F088234AF0F3
S1130580EE0FFF1FBB1F661F771F881F915050403F
S1130590A9F79E3F510570F060CFAACF5F3FECF3FF
S11305A0983EDCF3869577956795B795F795E7952B
S11305B09F5FC1F7FE2B880F911D9695879597F93C
S10905C00895F894FFCF3A
S10705C60C0903060F
S9030000FC
