S014000050726F6A6563745F546573742E737265633A
S113000029C000009EC30000C5C30000ECC300006B
S11300103CC000003AC0000038C0000036C00000F8
S113002034C0000032C0000030C000002EC0000008
S11300302CC000002AC0000028C0000026C0000018
S113004053C1000022C0000020C000001EC00000F8
S11300501CC0000011241FBECFE5D8E0DEBFCDBF19
S113006010E0A0E6B0E0E0E4FBE002C005900D92F1
S1130070A238B107D9F720E0A2E8B0E001C01D9290
S1130080AF38B207E1F70DD059C5BACF81E093D0AC
S11300906093820070938300809384009093850022
S11300A0089581E0F3D086E490E019D14BD08FE33A
S11300B09CE90197F1F700C0000060918200709103
S11300C0830080918400909185001BD4862FBBD03F
S11300D0F4CF61E08BE020D289EF90E00197F1F753
S11300E000C0000060E08BE017D289EF90E0019738
S11300F0F1F700C000000895CF93C82F60E089E0B5
S11301000BD200C080918600813039F44C2F429587
S11301104F7061E080E0FED2DCDF4C2F4F7061E075
S113012080E0F8D2D6DF80E18A95F1F700C0C150B3
S1130130C23030F483EF91E00197F1F700C0000082
S1130140CF91089561E08BE0F8D061E089E0F5D0CB
S113015061E08AE0F2D083ED90E30197F1F700C00B
S1130160000060E08AE0D8D14FE061E080E082D214
S113017083E0C2DF81EE94E00197F1F700C0000054
S113018083E0BADF92E39A95F1F783E0B5DF82E08A
S1130190B3DF89EF90E00197F1F700C0000081E040
S11301A08093860088E2A8DF8FE0A6DF81E0A4DFE9
S11301B086E0A2CF0895CF93DF93C82F80D021E1AA
S11301C0C29FE0011124C05ADF4F29813A814B813B
S11301D05C8151D42D813E814F8158852ED3298550
S11301E03A854B855C8547D42D853E854F85588956
S11301F024D3DF91CF910895CF93C82F6A3028F488
S1130200462F61E080E086D204C040E061E080E0F7
S113021081D2CC2319F0C13041F00DC061E089E0F6
S11302207BD160E08AE078D106C060E089E074D1D7
S113023061E08AE071D18FE39CE90197F1F700C096
S11302400000CF910895CF93CDEC8C9FC12D112444
S1130250C695C695C6952C2F220F922F990F990FEC
S1130260920F682F691B80E0C7DF6C2F81E0C4DF29
S1130270CF9108958FB780688FBF089597B1907E0E
S113028097B997B1892B87B9369A0895CF93C82F18
S1130290379A87B18F7387B93E9A86B1887F86B9BA
S11302A086B1876086B9E6DF339A359A80B78F7155
S11302B080BF80B780BF8C2FE1DFCF91089564B1F8
S11302C075B180E090E049D320E030E040EA50E4AA
S11302D0D2D320E030E040E85AE3CDC308959093B0
S11302E088008093870008951F920F920FB60F9293
S11302F011242F933F934F935F936F937F938F9327
S11303009F93AF93BF93EF93FF93E0918700F09196
S11303108800309709F00995FF91EF91BF91AF9153
S11303209F918F917F916F915F914F913F912F9109
S11303300F900FBE0F901F901895982F9770869569
S113034086958695813009F440C038F0823009F4EE
S113035074C0833009F4A9C00895611112C04AB36E
S113036021E030E0B90102C0660F771F9A95E2F7E9
S1130370CB018095942F98239ABB9BB389238BBB85
S11303800895623091F44AB321E030E0B90102C02B
S1130390660F771F9A95E2F7CB01962F90959423D9
S11303A09ABB9BB3892B8BBB0895613009F0B3C012
S11303B04AB321E030E0B90102C0660F771F9A9575
S11303C0E2F7CB01842B8ABB0895611112C047B3B5
S11303D021E030E0B90102C0660F771F9A95E2F779
S11303E0CB018095942F982397BB98B3892388BB1E
S11303F00895623091F447B321E030E0B90102C0BE
S1130400660F771F9A95E2F7CB01962F9095942368
S113041097BB98B3892B88BB0895613009F07BC0E2
S113042047B321E030E0B90102C0660F771F9A9507
S1130430E2F7CB01842B87BB0895611112C044B34A
S113044021E030E0B90102C0660F771F9A95E2F708
S1130450CB018095942F982394BB95B3892385BBB6
S11304600895623091F444B321E030E0B90102C050
S1130470660F771F9A95E2F7CB01962F90959423F8
S113048094BB95B3892B85BB0895613009F043C0B3
S113049044B321E030E0B90102C0660F771F9A959A
S11304A0E2F7CB01842B84BB0895611112C041B3E0
S11304B021E030E0B90102C0660F771F9A95E2F798
S11304C0CB018095942F982391BB92B3892382BB4F
S11304D00895623091F441B321E030E0B90102C0E3
S11304E0660F771F9A95E2F7CB01962F9095942388
S11304F091BB92B3892B82BB0895613061F441B3FF
S113050021E030E0B90102C0660F771F9A95E2F747
S1130510CB01842B81BB0895982F9770869586957F
S11305208695813041F138F0823009F444C083303B
S113053009F460C0089561110EC04BB321E030E0AE
S1130540B90102C0660F771F9A95E2F7CB01809537
S113055084238BBB0895613009F06AC04BB321E05A
S113056030E0B90102C0660F771F9A95E2F7CB011C
S1130570842B8BBB089561110EC048B321E030E099
S1130580B90102C0660F771F9A95E2F7CB018095F7
S1130590842388BB0895613009F04AC048B321E040
S11305A030E0B90102C0660F771F9A95E2F7CB01DC
S11305B0842B88BB089561110EC045B321E030E05F
S11305C0B90102C0660F771F9A95E2F7CB018095B7
S11305D0842385BB0895613059F545B321E030E0AB
S11305E0B90102C0660F771F9A95E2F7CB01842BFD
S11305F085BB089561110EC042B321E030E0B9011A
S113060002C0660F771F9A95E2F7CB018095842389
S113061082BB0895613061F442B321E030E0B90156
S113062002C0660F771F9A95E2F7CB01842B82BB39
S11306300895813041F028F0823039F0833039F068
S113064008956BBB089568BB089565BB089562BBAC
S11306500895813041F028F0823039F0833039F048
S113066007C099B305C096B303C093B301C090B358
S1130670892F08958130C1F028F0823039F1833018
S1130680B9F10895613049F48AB38F7090E1499FBC
S1130690A0011124482B4ABB089561113AC08AB3C2
S11306A0807F482B4ABB0895613049F487B38F702B
S11306B090E1499FA0011124482B47BB0895611183
S11306C028C087B3807F482B47BB0895613049F425
S11306D084B38F7090E1499FA0011124482B44BB3F
S11306E00895611116C084B3807F482B44BB0895DC
S11306F0613049F481B38F7090E1499FA0011124C6
S1130700482B41BB0895611104C081B3807F482BFD
S113071041BB0895CF93DF93D82FC42F613041F4A8
S113072098DF8F7090E1C99FB0011124682B04C039
S113073090DF807F682F6C2B8D2F7BDFDF91CF9133
S113074008951F920F920FB60F9211242F933F9387
S11307504F935F936F937F938F939F93AF93BF93C5
S1130760EF93FF93E0918D00F0918E00309709F0A4
S11307700995FF91EF91BF91AF919F918F917F91D7
S11307806F915F914F913F912F910F900FBE0F90FA
S11307901F9018951F920F920FB60F9211242F934A
S11307A03F934F935F936F937F938F939F93AF93F5
S11307B0BF93EF93FF93E0918B00F0918C003097FF
S11307C009F00995FF91EF91BF91AF919F918F919E
S11307D07F916F915F914F913F912F910F900FBE39
S11307E00F901F9018951F920F920FB60F9211241D
S11307F02F933F934F935F936F937F938F939F9325
S1130800AF93BF93EF93FF93E0918900F0918A0037
S1130810309709F00995FF91EF91BF91AF919F91A6
S11308208F917F916F915F914F913F912F910F9095
S11308300FBE0F901F9018955058BB27AA270ED0B3
S1130840E0C0D1D030F0D6D020F031F49F3F11F485
S11308501EF4C6C00EF4E095E7FBBCC0E92FE2D05D
S113086080F3BA17620773078407950718F071F4C9
S11308709EF5FAC00EF4E0950B2EBA2FA02D0B01B5
S1130880B90190010C01CA01A0011124FF27591BD1
S113089099F0593F50F4503E68F11A16F040A22FD7
S11308A0232F342F4427585FF3CF46953795279548
S11308B0A795F0405395C9F77EF41F16BA0B620B47
S11308C0730B840BBAF09150A1F0FF0FBB1F661F8E
S11308D0771F881FC2F70EC0BA0F621F731F841FD1
S11308E048F4879577956795B795F7959E3F08F0F7
S11308F0B3CF9395880F08F09927EE0F97958795B6
S1130900089598D088F09F5790F0B92F9927B75140
S1130910A0F0D1F0660F771F881F991F1AF0BA95BF
S1130920C9F712C0B13081F09FD0B1E008959CC0E6
S1130930672F782F8827B85F39F0B93FCCF38695B5
S113094077956795B395D9F73EF490958095709512
S113095061957F4F8F4F9F4F0895E89409C097FB8F
S11309603EF490958095709561957F4F8F4F9F4F82
S11309709923A9F0F92F96E9BB279395F6958795C6
S113098077956795B795F111F8CFFAF4BB0F11F489
S113099060FF1BC06F5F7F4F8F4F9F4F16C0882330
S11309A011F096E911C0772321F09EE8872F762F66
S11309B005C0662371F096E8862F70E060E02AF0A7
S11309C09A95660F771F881FDAF7880F9695879593
S11309D097F9089597F99F6780E870E060E00895BB
S11309E09FEF80EC089500240A9416161706180643
S11309F00906089500240A9412161306140605061F
S1130A000895092E0394000C11F4882352F0BB0FAF
S1130A1040F4BF2B11F460FF04C06F5F7F4F8F4F12
S1130A209F4F089557FD9058440F551F59F05F3F4D
S1130A3071F04795880F97FB991F61F09F3F79F0FC
S1130A4087950895121613061406551FF2CF46957E
S1130A50F1DF08C0161617061806991FF1CF869500
S1130A607105610508940895E894BB2766277727E4
S1130A70CB0197F908950BD0C4CFB5DF28F0BADFC6
S1130A8018F0952309F0A6CFABCF1124EECFCADF1F
S1130A90A0F3959FD1F3950F50E0551F629FF0018D
S1130AA0729FBB27F00DB11D639FAA27F00DB11DE6
S1130AB0AA1F649F6627B00DA11D661F829F22276F
S1130AC0B00DA11D621F739FB00DA11D621F839FF6
S1130AD0A00D611D221F749F3327A00D611D231FCC
S1130AE0849F600D211D822F762F6A2F11249F571A
S1130AF050408AF0E1F088234AF0EE0FFF1FBB1F3D
S1130B00661F771F881F91505040A9F79E3F5105DB
S1130B1070F060CFAACF5F3FECF3983EDCF386958C
S1130B2077956795B795F795E7959F5FC1F7FE2B86
S1130B30880F911D9695879597F90895F894FFCF9E
S1130B40000000803F000000000000C842000000D8
S1130B5000009A99A940333333C0CDCCACC0000017
S1050B609142BC
S9030000FC
