S014000050726F6A6563745F546573742E737265633A
S113000029C0000042C0000040C000003EC0000003
S11300103CC000003AC0000038C0000036C00000F8
S113002034C0000032C0000030C000002EC0000008
S11300302CC000002AC0000028C0000026C0000018
S113004024C0000022C0000020C000001EC0000028
S11300501CC0000011241FBECFE5D8E0DEBFCDBF19
S113006010E0A0E6B0E0EEEEF2E002C005900D92E2
S1130070A436B107D9F720E0A4E6B0E001C01D9290
S1130080A436B207E1F702D030C1BACF0ED0C8E02F
S113009023D0C150E9F72FEF87EA91E62150804041
S11300A09040E1F700C00000F2CF0F931F93CF936D
S11300B0DF9341E061E083E0C8D0C0E6D0E004E62D
S11300C010E061E0899134D0C017D107D1F7DF91F6
S11300D0CF911F910F910895EF92FF920F931F9369
S11300E0CF93DF93C0E6D0E00F2EF4E6EF2EF0E0DE
S11300F0FF2EF02D8E0160E089911AD08FE39FE1ED
S11301000197F1F700C0000061E0F801808110D090
S11301108FE39FE10197F1F700C00000CE15DF05E2
S113012049F7DF91CF911F910F91FF90EF900895C0
S1130130982F9770869586958695813041F138F091
S1130140823009F444C0833009F460C00895611119
S11301500EC04BB321E030E0B90102C0660F771F37
S11301609A95E2F7CB01809584238BBB0895613087
S113017009F06AC04BB321E030E0B90102C0660F58
S1130180771F9A95E2F7CB01842B8BBB08956111FD
S11301900EC048B321E030E0B90102C0660F771FFA
S11301A09A95E2F7CB018095842388BB089561304A
S11301B009F04AC048B321E030E0B90102C0660F3B
S11301C0771F9A95E2F7CB01842B88BB08956111C0
S11301D00EC045B321E030E0B90102C0660F771FBD
S11301E09A95E2F7CB018095842385BB089561300D
S11301F059F545B321E030E0B90102C0660F771F1D
S11302009A95E2F7CB01842B85BB089561110EC04A
S113021042B321E030E0B90102C0660F771F9A951E
S1130220E2F7CB018095842382BB0895613061F4A9
S113023042B321E030E0B90102C0660F771F9A95FE
S1130240E2F7CB01842B82BB08958130C1F028F002
S1130250823039F18330B9F10895613049F48AB3B9
S11302608F7090E1499FA0011124482B4ABB089547
S113027061113AC08AB3807F482B4ABB089561302C
S113028049F487B38F7090E1499FA0011124482B52
S113029047BB0895611128C087B3807F482B47BBB3
S11302A00895613049F484B38F7090E1499FA001AF
S11302B01124482B44BB0895611116C084B3807F78
S11302C0482B44BB0895613049F481B38F7090E1A9
S11302D0499FA0011124482B41BB0895611104C01A
S11102E081B3807F482B41BB0895F894FFCF73
S10702EE1C1D1E1F92
S9030000FC
