S014000050726F6A6563745F546573742E737265633A
S113000029C0000011C2000038C200005FC2000015
S11300103CC000003AC0000038C0000036C00000F8
S113002034C0000032C0000030C000002EC0000008
S11300302CC000002AC0000028C0000026C0000018
S113004024C0000022C0000020C000001EC0000028
S11300501CC0000011241FBECFE5D8E0DEBFCDBF19
S113006010E0A0E6B0E0E2E2F5E002C005900D92F7
S1130070A036B107D9F720E0A0E6B0E001C01D9298
S1130080A636B207E1F71BD04AC2BACF61E082E1DB
S11300902BD02FEF83ED90E3215080409040E1F787
S11300A000C0000060E082E11FD02FEF83ED90E3F9
S11300B0215080409040E1F700C00000089582E1A3
S11300C007D08AE10ED092D186E490E0A8D1FFCF88
S11300D0CF93C82F61E00ED060E08C2FFAD0CF917F
S11300E0089560E007C00895F4C008958FB780684C
S11300F08FBF0895982F9770869586958695813041
S113010009F440C038F0823009F474C0833009F433
S1130110A9C00895611112C04AB321E030E0B901C9
S113012002C0660F771F9A95E2F7CB018095942F52
S113013098239ABB9BB389238BBB0895623091F4B7
S11301404AB321E030E0B90102C0660F771F9A95E7
S1130150E2F7CB01962F909594239ABB9BB3892BFE
S11301608BBB0895613009F0B3C04AB321E030E09D
S1130170B90102C0660F771F9A95E2F7CB01842B71
S11301808ABB0895611112C047B321E030E0B90180
S113019002C0660F771F9A95E2F7CB018095942FE2
S11301A0982397BB98B3892388BB0895623091F450
S11301B047B321E030E0B90102C0660F771F9A957A
S11301C0E2F7CB01962F9095942397BB98B3892B94
S11301D088BB0895613009F07BC047B321E030E06B
S11301E0B90102C0660F771F9A95E2F7CB01842B01
S11301F087BB0895611112C044B321E030E0B90116
S113020002C0660F771F9A95E2F7CB018095942F71
S1130210982394BB95B3892385BB0895623091F4E8
S113022044B321E030E0B90102C0660F771F9A950C
S1130230E2F7CB01962F9095942394BB95B3892B29
S113024085BB0895613009F043C044B321E030E038
S1130250B90102C0660F771F9A95E2F7CB01842B90
S113026084BB0895611112C041B321E030E0B901AB
S113027002C0660F771F9A95E2F7CB018095942F01
S1130280982391BB92B3892382BB0895623091F481
S113029041B321E030E0B90102C0660F771F9A959F
S11302A0E2F7CB01962F9095942391BB92B3892BBF
S11302B082BB0895613061F441B321E030E0B901BB
S11302C002C0660F771F9A95E2F7CB01842B81BB9E
S11302D00895982F9770869586958695813041F17B
S11302E038F0823009F444C0833009F460C00895C2
S11302F061110EC04BB321E030E0B90102C0660FBA
S1130300771F9A95E2F7CB01809584238BBB0895E0
S1130310613009F06AC04BB321E030E0B90102C09A
S1130320660F771F9A95E2F7CB01842B8BBB089558
S113033061110EC048B321E030E0B90102C0660F7C
S1130340771F9A95E2F7CB018095842388BB0895A3
S1130350613009F04AC048B321E030E0B90102C07D
S1130360660F771F9A95E2F7CB01842B88BB08951B
S113037061110EC045B321E030E0B90102C0660F3F
S1130380771F9A95E2F7CB018095842385BB089566
S1130390613059F545B321E030E0B90102C0660F80
S11303A0771F9A95E2F7CB01842B85BB08956111E1
S11303B00EC042B321E030E0B90102C0660F771FDE
S11303C09A95E2F7CB018095842382BB089561302E
S11303D061F442B321E030E0B90102C0660F771F37
S11303E09A95E2F7CB01842B82BB089584B78F7B67
S11303F084BF85B7807F85BF85B78F6085BF84B78D
S1130400806484BF8BB78F718BBF8BB780648BBFC5
S11304108BB780688BBF8AB78ABF68CE08959093E4
S113042065008093640008951F920F920FB60F9297
S113043011242F933F934F935F936F937F938F93E5
S11304409F93AF93BF93EF93FF93E0916400F09178
S11304506500309709F00995FF91EF91BF91AF9135
S11304609F918F917F916F915F914F913F912F91C8
S11304700F900FBE0F901F9018951F920F920FB6FA
S11304800F9211242F933F934F935F936F937F9316
S11304908F939F93AF93BF93EF93FF93E091620089
S11304A0F0916300309709F00995FF91EF91BF91A6
S11304B0AF919F918F917F916F915F914F913F91F8
S11304C02F910F900FBE0F901F9018951F920F92AF
S11304D00FB60F9211242F933F934F935F936F9313
S11304E07F938F939F93AF93BF93EF93FF93E09189
S11304F06000F0916100309709F00995FF91EF9148
S1130500BF91AF919F918F917F916F915F914F9127
S11305103F912F910F900FBE0F901F901895F89454
S1050520FFCF07
S9030000FC
