S014000050726F6A6563745F546573742E737265633A
S113000029C000002FC000002DC000002BC000003C
S113001029C0000027C0000025C0000023C0000044
S113002021C000001FC000001DC000001BC0000054
S113003019C0000017C0000015C0000013C0000064
S113004011C000000FC000000DC000000BC0000074
S113005009C0000011241FBECFE5D8E0DEBFCDBF2C
S113006097D075C2CDCF60E0C0C00895CF93C82F9C
S113007038D2813069F483ED90E30197F1F700C041
S113008000008C2F2ED291E0813019F090E001C055
S113009090E0892FCF91089561E084E0A6D061E0DB
S11300A085E0A3D061E086E0A0D061E087E09DD048
S11300B061E08AE09AD061E089E097D060E084E072
S11300C083D160E085E080D160E086E07DD160E0AE
S11300D087E07AC10895CF93DF93D82FC62F6A3073
S11300E028F5617084E070D1C1FB662760F985E072
S11300F06BD1C2FB662760F986E066D1C3FB662735
S113010060F987E061D1DD2319F0D13041F01AC0E4
S113011061E08AE059D160E089E056D113C061E022
S113012089E052D160E08AE04FD10CC060E084E005
S11301304BD160E085E048D160E086E045D160E0E5
S113014087E042D1DF91CF910895CF93CDEC8C9F7E
S1130150C12D1124C695C695C6952C2F220F922F1A
S1130160990F990F920F682F691B81E0B4DF81EE1C
S113017094E00197F1F700C000006C2F80E0ABDF42
S113018081EE94E00197F1F700C00000CF9108954B
S113019088E069DF8EE167DF7FDF10E0D0E0CCE04C
S11301A0F12C01E001C0C0E088E060DF882329F081
S11301B0D11103C0CF5FD02F05C088E057DF811174
S11301C001C0DF2D8EE152DF882329F0111103C015
S11301D0C150102F05C08EE149DF811101C01F2DD0
S11301E08C2FB3DFC436F8F6DFCF982F977086953F
S11301F086958695813009F440C038F0823009F440
S113020074C0833009F4A9C00895611112C04AB3BF
S113021021E030E0B90102C0660F771F9A95E2F73A
S1130220CB018095942F98239ABB9BB389238BBBD6
S11302300895623091F44AB321E030E0B90102C07C
S1130240660F771F9A95E2F7CB01962F909594232A
S11302509ABB9BB3892B8BBB0895613009F0B3C063
S11302604AB321E030E0B90102C0660F771F9A95C6
S1130270E2F7CB01842B8ABB0895611112C047B306
S113028021E030E0B90102C0660F771F9A95E2F7CA
S1130290CB018095942F982397BB98B3892388BB6F
S11302A00895623091F447B321E030E0B90102C00F
S11302B0660F771F9A95E2F7CB01962F90959423BA
S11302C097BB98B3892B88BB0895613009F07BC034
S11302D047B321E030E0B90102C0660F771F9A9559
S11302E0E2F7CB01842B87BB0895611112C044B39C
S11302F021E030E0B90102C0660F771F9A95E2F75A
S1130300CB018095942F982394BB95B3892385BB07
S11303100895623091F444B321E030E0B90102C0A1
S1130320660F771F9A95E2F7CB01962F9095942349
S113033094BB95B3892B85BB0895613009F043C004
S113034044B321E030E0B90102C0660F771F9A95EB
S1130350E2F7CB01842B84BB0895611112C041B331
S113036021E030E0B90102C0660F771F9A95E2F7E9
S1130370CB018095942F982391BB92B3892382BBA0
S11303800895623091F441B321E030E0B90102C034
S1130390660F771F9A95E2F7CB01962F90959423D9
S11303A091BB92B3892B82BB0895613061F441B350
S11303B021E030E0B90102C0660F771F9A95E2F799
S11303C0CB01842B81BB0895982F977086958695D1
S11303D08695813041F138F0823009F444C083308D
S11303E009F460C0089561110EC04BB321E030E000
S11303F0B90102C0660F771F9A95E2F7CB01809589
S113040084238BBB0895613009F06AC04BB321E0AB
S113041030E0B90102C0660F771F9A95E2F7CB016D
S1130420842B8BBB089561110EC048B321E030E0EA
S1130430B90102C0660F771F9A95E2F7CB01809548
S1130440842388BB0895613009F04AC048B321E091
S113045030E0B90102C0660F771F9A95E2F7CB012D
S1130460842B88BB089561110EC045B321E030E0B0
S1130470B90102C0660F771F9A95E2F7CB01809508
S1130480842385BB0895613059F545B321E030E0FC
S1130490B90102C0660F771F9A95E2F7CB01842B4E
S11304A085BB089561110EC042B321E030E0B9016B
S11304B002C0660F771F9A95E2F7CB0180958423DB
S11304C082BB0895613061F442B321E030E0B901A8
S11304D002C0660F771F9A95E2F7CB01842B82BB8B
S11304E00895282F2770869586958695813081F00A
S11304F028F08230B9F08330F9F027C089B390E056
S113050002C0959587952A95E2F7982F91701DC0A2
S113051086B390E002C0959587952A95E2F7982FC7
S1130520917013C083B390E002C0959587952A9586
S1130530E2F7982F917009C080B390E002C09595BE
S113054087952A95E2F7982F9170892F0895F8944A
S1050550FFCFD7
S9030000FC
